:100000000C9462000C948A000C948A000C948A0070
:100010000C948A000C948A000C948A000C948A0038
:100020000C948A000C948A000C948A000C948A0028
:100030000C948A000C948A000C948A000C948A0018
:100040000C9448060C948A000C94B8060C94920602
:100050000C948A000C948A000C948A000C948A00F8
:100060000C948A000C948A000000000024002700F1
:100070002A0000000000250028002B0000000008D6
:10008000000201000003040700000000000000005F
:1000900000000000230026002900040404040404D6
:1000A0000404020202020202030303030303010227
:1000B00004081020408001020408102001020408F6
:1000C0001020EA0611241FBECFEFD8E0DEBFCDBF5F
:1000D00011E0A0E0B1E0EAE5F7E102C005900D9281
:1000E000AC37B107D9F722E0ACE7B1E001C01D920F
:1000F000AD34B207E1F710E0C2E6D0E004C02197CA
:10010000FE010E94A50BC136D107C9F70E94540712
:100110000C94AB0B0C940000CF92DF92EF92FF9205
:10012000CF93DF93B0914102A0E08111AB2F80917A
:10013000420290E0880F991FAC0140575F4FC0907A
:100140004702D0904802E0904902F0904A0230E025
:1001500020E0FA01C591D491E881B90190E080E0F6
:10016000EB23EA130AC02F5F3F4F6C157D058E0508
:100170009F0578F36FEF7FEFCB01DF91CF91FF9079
:10018000EF90DF90CF90089590E0FC01E458FF4F8E
:100190002491FC01E255FF4F3491FC01E656FF4FDC
:1001A000E491EE23C9F0222339F0233001F1A8F4C1
:1001B000213019F1223029F1F0E0EE0FFF1FEE5847
:1001C000FF4FA591B4918FB7F894EC91611126C0BF
:1001D00030953E233C938FBF08952730A9F02830F7
:1001E000C9F0243049F7809180008F7D03C0809151
:1001F00080008F7780938000DFCF84B58F7784BDB8
:10020000DBCF84B58F7DFBCF8091B0008F7780935B
:10021000B000D2CF8091B0008F7DF9CF3E2BDACFE6
:10022000CF93DF9390E0FC01E255FF4F2491865677
:100230009F4FFC0184918823D1F090E0880F991F93
:10024000FC01E859FF4FA591B491FC01EE58FF4F16
:10025000C591D491623071F49FB7F8943C91822F8C
:10026000809583238C93E8812E2B28839FBFDF9179
:10027000CF9108958FB7F894EC912E2B2C938FBFCC
:10028000F6CF8E50806480937C0080917A008064E9
:1002900080937A0080917A0086FDFCCF809178006F
:1002A0009091790008953FB7F89480917D019091E5
:1002B0007E01A0917F01B091800126B5A89B05C069
:1002C0002F3F19F00196A11DB11D3FBFBA2FA92FD5
:1002D000982F8827BC01CD01620F711D811D911DD2
:1002E00042E0660F771F881F991F4A95D1F708953E
:1002F0008F929F92AF92BF92CF92DF92EF92FF9236
:100300004B015C010E9453016B017C010E9453016F
:100310006C197D098E099F09683E7340810591051E
:10032000A8F321E0821A9108A108B10888EEC80E4E
:1003300083E0D81EE11CF11C81149104A104B104D6
:1003400029F7FF90EF90DF90CF90BF90AF909F90F4
:100350008F900895CF92DF92EF92FF920F931F93A9
:10036000CF93DF93CDB7DEB7C054D1400FB6F8942A
:10037000DEBF0FBECDBF2FB7F89480918101909161
:100380008201A0918301B09184012FBF409143026B
:100390005091440260914502709146028C019D018A
:1003A000041B150B260B370BB901A801403D574024
:1003B0006105710590F480914B02C05CDE4F0FB671
:1003C000F894DEBF0FBECDBFDF91CF911F910F918B
:1003D000FF90EF90DF90CF90089580934302909329
:1003E0004402A0934502B093460210923E0210923E
:1003F0003D0210923C0210923B0210923A0262E0DF
:1004000080913F020E94100161E070E080E090E086
:100410000E94780161E080913F020E94100160E03B
:1004200080913F020E94C400809140028551823039
:1004300020F58BE291E10197F1F762E080913F02B4
:100440000E94100180914C0290E08230910538F0BA
:10045000880F991F880F991F05970197F1F7F89456
:1004600080E00E948C006F3F7F4F8F4F9F4F61F461
:1004700010924B02789480E0A0CF64E170E080E0BD
:1004800090E00E947801D9CF81E00E948C006F3FFC
:100490007F4F8F4F9F4F61F38E010F5F1F4F6E0194
:1004A0008FEBC81A8EEFD80A780180E00E948C008A
:1004B000F701608371838283938381E00E948C00C3
:1004C000F7016483758386839783F8E0EF0EF11C50
:1004D000EC14FD0451F7789430E020E0F801C0807E
:1004E000D180E280F3804481558166817781FFEF7E
:1004F000CF16DF06EF06FF0631F04F3F8FEF5807AC
:100500006807780719F410924B02B5CFF90183E020
:10051000F595E7958A95E1F7E65CFD4F8081880FB8
:10052000C416D506E606F70610F180832F5F3F4F0D
:10053000085F1F4F2832310589F640913E02209115
:100540003A0280913B02280F3327331F80913C02EF
:10055000280F311D80913D02820F932F911D992705
:100560004817190681F681E080934B0226CF8160FF
:10057000DCCFAF92BF92CF92DF92EF92FF920F93B8
:100580001F93CF93DF936C017B018B01040F151F29
:10059000EB015E01AE18BF08C017D10759F0699191
:1005A000D601ED91FC910190F081E02DC6010995F5
:1005B000892B79F7C501DF91CF911F910F91FF90A2
:1005C000EF90DF90CF90BF90AF900895FC01538DD6
:1005D000448D252F30E0842F90E0821B930B54171D
:1005E00010F0CF96089501970895FC01918D828DAA
:1005F000981761F0A28DAE0FBF2FB11D5D968C9143
:10060000928D9F5F9F73928F90E008958FEF9FEF81
:100610000895FC01918D828D981731F0828DE80F3D
:10062000F11D858D90E008958FEF9FEF0895FC01F7
:10063000918D228D892F90E0805C9F4F821B9109C4
:100640008F739927089585E891E00E94170321E0B0
:10065000892B09F420E0822F089580E090E0892B17
:1006600029F00E94230381110C9400000895FC01DD
:10067000A48DA80FB92FB11DA35ABF4F2C91848D03
:1006800090E001968F739927848FA689B7892C9360
:10069000A089B1898C91837080648C93938D848DB3
:1006A000981306C00288F389E02D80818F7D8083B6
:1006B0000895EF92FF920F931F93CF93DF93EC0176
:1006C00081E0888F9B8D8C8D98131AC0E889F989F9
:1006D000808185FF15C09FB7F894EE89FF896083FC
:1006E000E889F98980818370806480839FBF81E07D
:1006F00090E0DF91CF911F910F91FF90EF900895BF
:10070000F62E0B8D10E00F5F1F4F0F731127E02E99
:100710008C8D8E110CC00FB607FCFACFE889F989D1
:10072000808185FFF5CFCE010E943703F1CFEB8D9D
:10073000EC0FFD2FF11DE35AFF4FF0829FB7F894A5
:100740000B8FEA89FB8980818062CFCFCF93DF93C3
:10075000EC01888D8823B9F0AA89BB89E889F989D9
:100760008C9185FD03C0808186FD0DC00FB607FC0E
:10077000F7CF8C9185FFF2CF808185FFEDCFCE0141
:100780000E943703E9CFDF91CF910895089590E05B
:1007900080E00895CF93DF93EC0160E08E810E94AA
:1007A000C40061E08E810E94C40060E08E810E94DE
:1007B000C4008BE891E00197F1F7DF91CF910895A4
:1007C000CF92DF92EF92FF920F931F93CF93DF931D
:1007D0006C017C0187E0E80EF11CD0E0C0E0062F40
:1007E00010E0B8010C2E02C0759567950A94E2F7E7
:1007F0006170F70181917F010E94C4002196C4308D
:10080000D10579F7C601DF91CF911F910F91FF902C
:10081000EF90DF90CF900C94CA03CF92DF92EF92CB
:10082000FF920F931F93CF93DF93EC01F62E642F6B
:100830008C810E94C4008D818F3F19F060E00E947E
:10084000C4000F2D10E08F8584FF25C06E0187E066
:10085000C80ED11CF12CE12CB8010E2C02C07595EC
:1008600067950A94E2F76170F60181916F010E9429
:10087000C400FFEFEF1AFF0A88E0E816F10461F701
:10088000CE01DF91CF911F910F91FF90EF90DF90FC
:10089000CF900C94CA03B80184E0759567958A954A
:1008A000E1F7CE010E94E0036F2DCE01DF91CF91E1
:1008B0001F910F91FF90EF90DF90CF900C94E00389
:1008C00040E0682F82E292E00C940D0481E00E94E7
:1008D00060048BE39FE10197F1F70895CF93DF93D5
:1008E000823029F490913102986090933102809384
:1008F00035021092360280E48093370280E18093C3
:10090000380280E58093390261E0809126020E94DE
:100910001001809127028F3F19F061E00E941001C1
:1009200061E0809128020E941001C2E2D2E09E01A3
:10093000225232408091310284FD0BC084E090E06D
:1009400021962817390744F461E08E810E94100136
:10095000EECF88E090E0F4CF8BE39DE00197F1F7D4
:1009600060E0809126020E94C40060E0809128022D
:100970000E94C400809127028F3F19F060E00E941E
:10098000C4008091310284FD34C063E082E292E0D1
:100990000E94E003CBE4D6E4CE010197F1F763E0D7
:1009A00082E292E00E94E0032197F1F763E082E2A5
:1009B00092E00E94E00383E592E00197F1F762E0A4
:1009C00082E292E00E94E0038091310280620E9404
:1009D000600484E0809332028CE00E9460040E94F4
:1009E000660482E08093330286E0DF91CF910C941D
:1009F000600480620E9460048BE496E40197F1F742
:100A00008091310280620E94600483E592E0019748
:100A1000F1F78091310280620E946004D5CF41E0FD
:100A20000E940D0481E090E00895FB0101900020F8
:100A3000E9F73197AF01461B570BDC01ED91FC91B3
:100A40000280F381E02D09948F929F92AF92BF9222
:100A50000F931F93CF93DF93CDB7DEB7A1970FB658
:100A6000F894DEBF0FBECDBF19A2423008F44AE0B1
:100A70008E010F5D1F4F842E912CB12CA12CA5014E
:100A800094010E94830BE62FB901CA01EA3004F5F4
:100A9000E05DD801EE938D01232B242B252B79F7D4
:100AA00090E080E0109729F0BD0182E292E00E9480
:100AB0001505A1960FB6F894DEBF0FBECDBFDF912E
:100AC000CF911F910F91BF90AF909F908F900895FD
:100AD000E95CDFCF4F925F926F927F928F929F92ED
:100AE000AF92BF92CF92DF92EF92FF920F931F933C
:100AF000CF936B017C01742EAC019B010E947E0B95
:100B00006EE171E0811126C046015701E894B7F803
:100B10002FEF3FEF4FE75FE7C501B4010E947E0B67
:100B200081110CC02FEF3FEF4FE75FE7C501B40124
:100B30000E94B40962E271E0181664F02FEF3FEFF3
:100B40004FE75FE4C701B6010E940C0B1816ACF426
:100B500066E271E082E292E0CF911F910F91FF90E7
:100B6000EF90DF90CF90BF90AF909F908F907F904D
:100B70006F905F904F900C9415052FEF3FEF4FE76C
:100B80005FECC701B6010E94B40987FDE1CF20E008
:100B900030E0A901C701B6010E94B40910E000E0ED
:100BA00087FF0CC041E06DE282E292E00E940D04FA
:100BB000F7FAF094F7F8F09401E010E0C0E060E09C
:100BC00070E080E09FE37C1641F020E030E040E2FE
:100BD00051E40E94B909CF5FF6CFA70196010E94A8
:100BE00048094B015C010E942B0A2B013C014AE0A1
:100BF0000E942405080F191FCC23C9F1C301B201BB
:100C00000E945A0A9B01AC01C501B4010E94470928
:100C10004B015C0141E06EE282E292E00E940D0431
:100C20000F5F1F4FC15018F120E030E040E251E467
:100C3000C501B4010E94110B2B013C010E942B0A3B
:100C40004B01B12CA12C4AE0C501B4010E9424053E
:100C5000080F191FC501B4010E945A0A9B01AC017B
:100C6000C301B2010E9447094B015C01DBCFC801FF
:100C7000CF911F910F91FF90EF90DF90CF90BF9099
:100C8000AF909F908F907F906F905F904F9008955E
:100C90001F920F920FB60F9211242F933F938F93B1
:100CA0009F93AF93BF938091810190918201A09116
:100CB0008301B091840130917C0123E0230F2D3713
:100CC00058F50196A11DB11D20937C0180938101EF
:100CD00090938201A0938301B093840180917D0160
:100CE00090917E01A0917F01B09180010196A11D9C
:100CF000B11D80937D0190937E01A0937F01B093FD
:100D00008001BF91AF919F918F913F912F910F9053
:100D10000FBE0F901F90189526E8230F0296A11D75
:100D2000B11DD2CF1F920F920FB60F9211242F93A5
:100D30003F934F935F936F937F938F939F93AF9363
:100D4000BF93EF93FF9385E891E00E943703FF91F3
:100D5000EF91BF91AF919F918F917F916F915F9133
:100D60004F913F912F910F900FBE0F901F901895AC
:100D70001F920F920FB60F9211242F938F939F9370
:100D8000EF93FF93E0919501F09196018081E091BE
:100D90009B01F0919C0182FD1BC0908180919E017E
:100DA0008F5F8F7320919F01821741F0E0919E0128
:100DB000F0E0EB57FE4F958F80939E01FF91EF91EE
:100DC0009F918F912F910F900FBE0F901F901895AC
:100DD0008081F4CFE5E8F1E01382128288EE93E09F
:100DE000A0E0B0E084839583A683B78384E091E09C
:100DF0009183808385EC90E09587848784EC90E0F4
:100E00009787868780EC90E0918B808B81EC90E0D7
:100E1000938B828B82EC90E0958B848B86EC90E0B8
:100E2000978B868B118E128E138E148EAAE3B2E0EE
:100E30008EE015968C93159786E116968C931697EF
:100E4000ECEBF0E0E4911796EC931797E8EAF0E00A
:100E5000E4911896EC93189740E85EE360E070E048
:100E60001D964D935D936D937C935097E2E2F2E073
:100E70001382128286E191E09183808387E08483EC
:100E80008FEF858386E0868385E0878384E0808793
:100E900083E0818782E08287138614861586168612
:100EA000178681E00C946E04789484B5826084BDCA
:100EB00084B5816084BD85B5826085BD85B581605E
:100EC00085BD80916E00816080936E0010928100DC
:100ED0008091810082608093810080918100816097
:100EE0008093810080918000816080938000809158
:100EF000B10084608093B1008091B00081608093E4
:100F0000B00080917A00846080937A0080917A00AA
:100F1000826080937A0080917A00816080937A0069
:100F200080917A00806880937A001092C100E091ED
:100F30009501F091960182E08083E0919101F0911A
:100F400092011082E0919301F09194018FEC8083E3
:100F500010929D01E0919901F0919A0186E08083C1
:100F6000E0919701F0919801808180618083E09108
:100F70009701F0919801808188608083E0919701CA
:100F8000F0919801808180688083E0919701F091D1
:100F9000980180818F7D808362E080913F020E9472
:100FA00010012FB7F8948091810190918201A09156
:100FB0008301B09184012FBF805D9740A109B109E1
:100FC0008093430290934402A0934502B09346025B
:100FD00087E380934C0282E00E946E0461E08DE022
:100FE0000E9410016AE271E082E292E00E9415051F
:100FF00060ED77E080E090E00E947801C0E0D0E012
:1010000060ED77E080E090E00E9478010E94AA0104
:10101000882349F0809140028B3028F08D3050F0C9
:1010200085518230C8F1812C912C20ECA22E2FE723
:10103000B22E1EC060913B0270E090E080E00E9402
:101040005C0A2DEC3CEC4CEC5DE30E94110B6B0157
:101050007C0160913A0270E090E080E00E945C0ABE
:101060009B01AC01C701B6010E9448094B015C011C
:101070000E94AA01882309F475C0809140028C3037
:1010800009F493C0D8F48B3091F1C12CD12C80ECB1
:10109000E82E8FE7F82E55C060913A0270913B021E
:1010A00076276727762790E080E00E945A0A2DEC89
:1010B0003CEC4CEC5DE30E94110BD8CF85518230A3
:1010C00020F710913C02612F70E0762F662766278B
:1010D0007F7780913D02682B90E080E00E945A0A61
:1010E0002DEC3CEC4CEC5DE30E94110B7AC060915E
:1010F0003C0270E090E080E00E945A0A6B017C01A3
:1011000010913D0217FF0AC0AC019B0160E070E046
:1011100080E89FEB0E9447096B017C011F70612FE3
:1011200070E090E080E00E945C0A2DEC3CEC4CEC1E
:101130005DE30E94110BA70196010E9448096B0113
:101140007C01A5019401C501B4010E947E0B8111AF
:1011500009C0A7019601C701B6010E947E0B882332
:1011600009F448C068E371E085E891E00E94150544
:1011700068E571E085E891E00E9415050E9466042B
:101180006BE571E082E292E00E94150561E08DE07E
:101190000E94C400209709F433CF0E9423038823C0
:1011A00009F42ECF0E9400002BCF10913C02612F3A
:1011B00070E090E080E00E945A0A6B017C0160912F
:1011C0003D026F7070E090E080E00E945C0A2DECC0
:1011D0003CEC4CEC5DE30E94110BA70196010E94D0
:1011E00048096B017C0117FFACCFF7FAF094F7F8D0
:1011F000F094A7CF60E08DE00E94C4000E946604D6
:10120000E1E0809135028111E0E0E195F0E0EE5DF2
:10121000FD4F848980680E94600468E671E082E284
:1012200092E00E94150542E0C701B6010E946A05DE
:101230006FE671E082E292E00E941505E0913502CE
:10124000E23018F5E150F0E0EE5DFD4F84898068F2
:101250000E94600462E771E082E292E00E9415055C
:1012600042E0C501B4010E946A0568E771E082E2CC
:1012700092E00E9415058FE00E94410180E10E94EA
:10128000410181E10E94410185CFE1E0DCCF50586E
:10129000BB27AA270E945F090C94D20A0E94C40AA5
:1012A00038F00E94CB0A20F039F49F3F19F426F45D
:1012B0000C94C10A0EF4E095E7FB0C94BB0AE92FED
:1012C0000E94E30A58F3BA17620773078407950769
:1012D00020F079F4A6F50C94050B0EF4E0950B2E96
:1012E000BA2FA02D0B01B90190010C01CA01A00178
:1012F0001124FF27591B99F0593F50F4503E68F1D3
:101300001A16F040A22F232F342F4427585FF3CF13
:10131000469537952795A795F0405395C9F77EF4E4
:101320001F16BA0B620B730B840BBAF09150A1F02D
:10133000FF0FBB1F661F771F881FC2F70EC0BA0FB3
:10134000621F731F841F48F4879577956795B7953B
:10135000F7959E3F08F0B0CF9395880F08F0992736
:10136000EE0F9795879508950E94970A08F481E0FB
:1013700008950E94CD090C94D20A0E94CB0A58F01D
:101380000E94C40A40F029F45F3F29F00C94BB0A84
:1013900051110C94060B0C94C10A0E94E30A68F3E5
:1013A0009923B1F3552391F3951B550BBB27AA271E
:1013B00062177307840738F09F5F5F4F220F331F58
:1013C000441FAA1FA9F335D00E2E3AF0E0E832D020
:1013D00091505040E695001CCAF72BD0FE2F29D023
:1013E000660F771F881FBB1F261737074807AB07F5
:1013F000B0E809F0BB0B802DBF01FF2793585F4F6A
:101400003AF09E3F510578F00C94BB0A0C94060B01
:101410005F3FE4F3983ED4F3869577956795B7954B
:10142000F7959F5FC9F7880F911D9695879597F956
:101430000895E1E0660F771F881FBB1F62177307CF
:101440008407BA0720F0621B730B840BBA0BEE1FE4
:1014500088F7E09508950E94EB0A88F09F5798F06E
:10146000B92F9927B751B0F0E1F0660F771F881FA9
:10147000991F1AF0BA95C9F714C0B13091F00E94C3
:10148000050BB1E008950C94050B672F782F882782
:10149000B85F39F0B93FCCF3869577956795B395EA
:1014A000D9F73EF490958095709561957F4F8F4F59
:1014B0009F4F0895E89409C097FB3EF4909580955E
:1014C000709561957F4F8F4F9F4F9923A9F0F92F0A
:1014D00096E9BB279395F695879577956795B79588
:1014E000F111F8CFFAF4BB0F11F460FF1BC06F5F6E
:1014F0007F4F8F4F9F4F16C0882311F096E911C080
:10150000772321F09EE8872F762F05C0662371F0A0
:1015100096E8862F70E060E02AF09A95660F771FB4
:10152000881FDAF7880F9695879597F90895990F90
:101530000008550FAA0BE0E8FEEF16161706E8079D
:10154000F907C0F012161306E407F50798F0621BBE
:10155000730B840B950B39F40A2661F0232B242B93
:10156000252B21F408950A2609F4A140A6958FEFB2
:10157000811D811D089597F99F6780E870E060E004
:1015800008959FEF80EC089500240A94161617061C
:1015900018060906089500240A9412161306140664
:1015A00005060895092E0394000C11F4882352F0C7
:1015B000BB0F40F4BF2B11F460FF04C06F5F7F4F7F
:1015C0008F4F9F4F089557FD9058440F551F59F066
:1015D0005F3F71F04795880F97FB991F61F09F3F20
:1015E00079F087950895121613061406551FF2CF49
:1015F0004695F1DF08C0161617061806991FF1CF99
:1016000086957105610508940895E894BB276627BF
:101610007727CB0197F908950E94970A08F48FEF76
:1016200008950E94240B0C94D20A0E94C40A38F038
:101630000E94CB0A20F0952311F00C94BB0A0C9465
:10164000C10A11240C94060B0E94E30A70F3959FC3
:10165000C1F3950F50E0551F629FF001729FBB27A9
:10166000F00DB11D639FAA27F00DB11DAA1F649F45
:101670006627B00DA11D661F829F2227B00DA11DF8
:10168000621F739FB00DA11D621F839FA00D611D7E
:10169000221F749F3327A00D611D231F849F600D9F
:1016A000211D822F762F6A2F11249F5750409AF0C8
:1016B000F1F088234AF0EE0FFF1FBB1F661F771F54
:1016C000881F91505040A9F79E3F510580F00C941F
:1016D000BB0A0C94060B5F3FE4F3983ED4F3869567
:1016E00077956795B795F795E7959F5FC1F7FE2BBF
:1016F000880F911D9695879597F908950E94970AEE
:10170000880B990B0895A1E21A2EAA1BBB1BFD01A1
:101710000DC0AA1FBB1FEE1FFF1FA217B307E407D0
:10172000F50720F0A21BB30BE40BF50B661F771F28
:10173000881F991F1A9469F7609570958095909508
:101740009B01AC01BD01CF010895EE0FFF1F059075
:0A175000F491E02D0994F894FFCF06
:10175A00000000005903B902E602A6031703F502C6
:10176A000903000000000F05B902C703C6036E6132
:10177A006E00696E66006F7666004D6F6E69746FF3
:10178A0072696E672E2E2E004661696C656420743C
:10179A006F20726561642066726F6D204448542020
:1017AA0073656E736F7221000D0A0053656E736F55
:1017BA0072204572726F720054656D703A20002073
:0C17CA00430048756D3A20002025000007
:00000001FF
